{
  "_format": "hh-sol-artifact-1",
  "contractName": "CertificacionesObra",
  "sourceName": "contracts/CertificacionesObra.sol",
  "abi": [
    {
      "inputs": [],
      "stateMutability": "nonpayable",
      "type": "constructor"
    },
    {
      "anonymous": false,
      "inputs": [
        {
          "indexed": true,
          "internalType": "uint256",
          "name": "id",
          "type": "uint256"
        },
        {
          "indexed": true,
          "internalType": "address",
          "name": "emisor",
          "type": "address"
        },
        {
          "indexed": true,
          "internalType": "address",
          "name": "receptor",
          "type": "address"
        },
        {
          "indexed": false,
          "internalType": "string",
          "name": "documentCid",
          "type": "string"
        },
        {
          "indexed": false,
          "internalType": "enum CertificacionesObra.TipoCertificacion",
          "name": "tipo",
          "type": "uint8"
        }
      ],
      "name": "CertificacionEmitida",
      "type": "event"
    },
    {
      "anonymous": false,
      "inputs": [
        {
          "indexed": true,
          "internalType": "uint256",
          "name": "id",
          "type": "uint256"
        },
        {
          "indexed": true,
          "internalType": "address",
          "name": "revocadoPor",
          "type": "address"
        },
        {
          "indexed": false,
          "internalType": "uint256",
          "name": "timestamp",
          "type": "uint256"
        }
      ],
      "name": "CertificacionRevocada",
      "type": "event"
    },
    {
      "anonymous": false,
      "inputs": [
        {
          "indexed": true,
          "internalType": "uint256",
          "name": "id",
          "type": "uint256"
        },
        {
          "indexed": true,
          "internalType": "address",
          "name": "verificadoPor",
          "type": "address"
        },
        {
          "indexed": false,
          "internalType": "uint256",
          "name": "timestamp",
          "type": "uint256"
        }
      ],
      "name": "CertificacionVerificada",
      "type": "event"
    },
    {
      "inputs": [],
      "name": "autoridadCentral",
      "outputs": [
        {
          "internalType": "address",
          "name": "",
          "type": "address"
        }
      ],
      "stateMutability": "view",
      "type": "function"
    },
    {
      "inputs": [
        {
          "internalType": "address",
          "name": "_emisor",
          "type": "address"
        },
        {
          "internalType": "uint256",
          "name": "_tipo",
          "type": "uint256"
        }
      ],
      "name": "autorizarEmisor",
      "outputs": [],
      "stateMutability": "nonpayable",
      "type": "function"
    },
    {
      "inputs": [
        {
          "internalType": "address",
          "name": "_nuevaAutoridad",
          "type": "address"
        }
      ],
      "name": "cambiarAutoridadCentral",
      "outputs": [],
      "stateMutability": "nonpayable",
      "type": "function"
    },
    {
      "inputs": [
        {
          "internalType": "uint256",
          "name": "",
          "type": "uint256"
        }
      ],
      "name": "certificaciones",
      "outputs": [
        {
          "internalType": "uint256",
          "name": "id",
          "type": "uint256"
        },
        {
          "internalType": "string",
          "name": "nombre",
          "type": "string"
        },
        {
          "internalType": "string",
          "name": "descripcion",
          "type": "string"
        },
        {
          "internalType": "address",
          "name": "emisor",
          "type": "address"
        },
        {
          "internalType": "address",
          "name": "receptor",
          "type": "address"
        },
        {
          "internalType": "uint256",
          "name": "fechaEmision",
          "type": "uint256"
        },
        {
          "internalType": "uint256",
          "name": "fechaExpiracion",
          "type": "uint256"
        },
        {
          "internalType": "string",
          "name": "documentCid",
          "type": "string"
        },
        {
          "internalType": "enum CertificacionesObra.TipoCertificacion",
          "name": "tipo",
          "type": "uint8"
        },
        {
          "internalType": "bool",
          "name": "revocada",
          "type": "bool"
        }
      ],
      "stateMutability": "view",
      "type": "function"
    },
    {
      "inputs": [
        {
          "internalType": "address",
          "name": "",
          "type": "address"
        },
        {
          "internalType": "uint256",
          "name": "",
          "type": "uint256"
        }
      ],
      "name": "certificacionesPorEmisor",
      "outputs": [
        {
          "internalType": "uint256",
          "name": "",
          "type": "uint256"
        }
      ],
      "stateMutability": "view",
      "type": "function"
    },
    {
      "inputs": [
        {
          "internalType": "address",
          "name": "",
          "type": "address"
        },
        {
          "internalType": "uint256",
          "name": "",
          "type": "uint256"
        }
      ],
      "name": "certificacionesPorReceptor",
      "outputs": [
        {
          "internalType": "uint256",
          "name": "",
          "type": "uint256"
        }
      ],
      "stateMutability": "view",
      "type": "function"
    },
    {
      "inputs": [
        {
          "internalType": "address",
          "name": "",
          "type": "address"
        },
        {
          "internalType": "uint256",
          "name": "",
          "type": "uint256"
        }
      ],
      "name": "emisoresAutorizados",
      "outputs": [
        {
          "internalType": "bool",
          "name": "",
          "type": "bool"
        }
      ],
      "stateMutability": "view",
      "type": "function"
    },
    {
      "inputs": [
        {
          "internalType": "string",
          "name": "_nombre",
          "type": "string"
        },
        {
          "internalType": "string",
          "name": "_descripcion",
          "type": "string"
        },
        {
          "internalType": "address",
          "name": "_receptor",
          "type": "address"
        },
        {
          "internalType": "uint256",
          "name": "_fechaExpiracion",
          "type": "uint256"
        },
        {
          "internalType": "string",
          "name": "_documentCid",
          "type": "string"
        },
        {
          "internalType": "enum CertificacionesObra.TipoCertificacion",
          "name": "_tipo",
          "type": "uint8"
        }
      ],
      "name": "emitirCertificacion",
      "outputs": [
        {
          "internalType": "uint256",
          "name": "",
          "type": "uint256"
        }
      ],
      "stateMutability": "nonpayable",
      "type": "function"
    },
    {
      "inputs": [
        {
          "internalType": "uint256",
          "name": "_certificacionId",
          "type": "uint256"
        }
      ],
      "name": "esCertificacionValida",
      "outputs": [
        {
          "internalType": "bool",
          "name": "",
          "type": "bool"
        }
      ],
      "stateMutability": "view",
      "type": "function"
    },
    {
      "inputs": [
        {
          "internalType": "uint256",
          "name": "_certificacionId",
          "type": "uint256"
        }
      ],
      "name": "obtenerCertificacion",
      "outputs": [
        {
          "internalType": "uint256",
          "name": "",
          "type": "uint256"
        },
        {
          "internalType": "string",
          "name": "",
          "type": "string"
        },
        {
          "internalType": "string",
          "name": "",
          "type": "string"
        },
        {
          "internalType": "address",
          "name": "",
          "type": "address"
        },
        {
          "internalType": "address",
          "name": "",
          "type": "address"
        },
        {
          "internalType": "uint256",
          "name": "",
          "type": "uint256"
        },
        {
          "internalType": "uint256",
          "name": "",
          "type": "uint256"
        },
        {
          "internalType": "string",
          "name": "",
          "type": "string"
        },
        {
          "internalType": "enum CertificacionesObra.TipoCertificacion",
          "name": "",
          "type": "uint8"
        },
        {
          "internalType": "bool",
          "name": "",
          "type": "bool"
        }
      ],
      "stateMutability": "view",
      "type": "function"
    },
    {
      "inputs": [
        {
          "internalType": "address",
          "name": "_emisor",
          "type": "address"
        }
      ],
      "name": "obtenerCertificacionesDeEmisor",
      "outputs": [
        {
          "internalType": "uint256[]",
          "name": "",
          "type": "uint256[]"
        }
      ],
      "stateMutability": "view",
      "type": "function"
    },
    {
      "inputs": [
        {
          "internalType": "address",
          "name": "_receptor",
          "type": "address"
        }
      ],
      "name": "obtenerCertificacionesDeReceptor",
      "outputs": [
        {
          "internalType": "uint256[]",
          "name": "",
          "type": "uint256[]"
        }
      ],
      "stateMutability": "view",
      "type": "function"
    },
    {
      "inputs": [
        {
          "internalType": "uint256",
          "name": "_certificacionId",
          "type": "uint256"
        }
      ],
      "name": "revocarCertificacion",
      "outputs": [],
      "stateMutability": "nonpayable",
      "type": "function"
    },
    {
      "inputs": [
        {
          "internalType": "address",
          "name": "_emisor",
          "type": "address"
        },
        {
          "internalType": "uint256",
          "name": "_tipo",
          "type": "uint256"
        }
      ],
      "name": "revocarEmisor",
      "outputs": [],
      "stateMutability": "nonpayable",
      "type": "function"
    },
    {
      "inputs": [
        {
          "internalType": "uint256",
          "name": "_certificacionId",
          "type": "uint256"
        }
      ],
      "name": "verificarCertificacion",
      "outputs": [
        {
          "internalType": "bool",
          "name": "",
          "type": "bool"
        }
      ],
      "stateMutability": "nonpayable",
      "type": "function"
    }
  ],
  "bytecode": "0x608060405234801561001057600080fd5b50600580546001600160a01b031916331790556115cf806100326000396000f3fe608060405234801561001057600080fd5b50600436106100f55760003560e01c8063b02e72be11610097578063c91ef50e11610066578063c91ef50e14610246578063cfcab30914610259578063d5c644ae1461026c578063fd2c7a5e1461027f57600080fd5b8063b02e72be146101e2578063b9d7f638146101f5578063bcb9f49f14610208578063bf049b971461021b57600080fd5b806341063679116100d3578063410636791461014857806350a71cfb146101685780635de7a81e146101a65780639c19d278146101b957600080fd5b8063124b825a146100fa578063258cf4e0146101205780632dbeaf1114610133575b600080fd5b61010d6101083660046110fa565b610292565b6040519081526020015b60405180910390f35b61010d61012e3660046110fa565b6102c3565b6101466101413660046110fa565b6102df565b005b61015b610156366004611124565b61043b565b604051610117919061113f565b6101966101763660046110fa565b600460209081526000928352604080842090915290825290205460ff1681565b6040519015158152602001610117565b6101466101b4366004611183565b6104a7565b6101cc6101c7366004611183565b610670565b6040516101179a9998979695949392919061121a565b6101466101f0366004611124565b61086d565b6101cc610203366004611183565b610972565b6101466102163660046110fa565b610bff565b60055461022e906001600160a01b031681565b6040516001600160a01b039091168152602001610117565b610196610254366004611183565b610cfd565b61010d61026736600461134d565b610d55565b61019661027a366004611183565b611025565b61015b61028d366004611124565b611074565b600260205281600052604060002081815481106102ae57600080fd5b90600052602060002001600091509150505481565b600160205281600052604060002081815481106102ae57600080fd5b6005546001600160a01b031633146103645760405162461bcd60e51b815260206004820152603460248201527f536f6c6f206c61206175746f72696461642063656e7472616c2070756564652060448201527f7265616c697a6172206573746120616363696f6e00000000000000000000000060648201526084015b60405180910390fd5b6001600160a01b0382166103ba5760405162461bcd60e51b815260206004820152601260248201527f446972656363696f6e20696e76616c6964610000000000000000000000000000604482015260640161035b565b600681111561040b5760405162461bcd60e51b815260206004820152601e60248201527f5469706f2064652063657274696669636163696f6e20696e76616c69646f0000604482015260640161035b565b6001600160a01b03909116600090815260046020908152604080832093835292905220805460ff19166001179055565b6001600160a01b03811660009081526001602090815260409182902080548351818402810184019094528084526060939283018282801561049b57602002820191906000526020600020905b815481526020019060010190808311610487575b50505050509050919050565b600081815260208190526040812080549091036105065760405162461bcd60e51b815260206004820152601760248201527f43657274696669636163696f6e206e6f20657869737465000000000000000000604482015260640161035b565b6008810154610100900460ff16156105605760405162461bcd60e51b815260206004820152601960248201527f43657274696669636163696f6e207961207265766f6361646100000000000000604482015260640161035b565b60038101546001600160a01b031633148061058557506005546001600160a01b031633145b61061d5760405162461bcd60e51b815260206004820152604560248201527f536f6c6f20656c20656d69736f72206f206c61206175746f726964616420636560448201527f6e7472616c2070756564656e207265766f636172206c6120636572746966696360648201527f6163696f6e000000000000000000000000000000000000000000000000000000608482015260a40161035b565b60088101805461ff001916610100179055604051339083907f09e1b0ae689933e672363f496c7f7de4e7851d37161b365cc863223334ba7393906106649042815260200190565b60405180910390a35050565b6000602081905290815260409020805460018201805491929161069290611407565b80601f01602080910402602001604051908101604052809291908181526020018280546106be90611407565b801561070b5780601f106106e05761010080835404028352916020019161070b565b820191906000526020600020905b8154815290600101906020018083116106ee57829003601f168201915b50505050509080600201805461072090611407565b80601f016020809104026020016040519081016040528092919081815260200182805461074c90611407565b80156107995780601f1061076e57610100808354040283529160200191610799565b820191906000526020600020905b81548152906001019060200180831161077c57829003601f168201915b505050600384015460048501546005860154600687015460078801805497986001600160a01b039586169894909516965091945092916107d890611407565b80601f016020809104026020016040519081016040528092919081815260200182805461080490611407565b80156108515780601f1061082657610100808354040283529160200191610851565b820191906000526020600020905b81548152906001019060200180831161083457829003601f168201915b5050506008909301549192505060ff808216916101009004168a565b6005546001600160a01b031633146108ed5760405162461bcd60e51b815260206004820152603460248201527f536f6c6f206c61206175746f72696461642063656e7472616c2070756564652060448201527f7265616c697a6172206573746120616363696f6e000000000000000000000000606482015260840161035b565b6001600160a01b0381166109435760405162461bcd60e51b815260206004820152601260248201527f446972656363696f6e20696e76616c6964610000000000000000000000000000604482015260640161035b565b6005805473ffffffffffffffffffffffffffffffffffffffff19166001600160a01b0392909216919091179055565b6000606080600080600080606060008060008060008d8152602001908152602001600020905080600001546000036109ec5760405162461bcd60e51b815260206004820152601760248201527f43657274696669636163696f6e206e6f20657869737465000000000000000000604482015260640161035b565b805460038201546004830154600584015460068501546008860154600187018054909560028901956001600160a01b03918216959116939092909160078a019160ff8082169261010090920416908990610a4590611407565b80601f0160208091040260200160405190810160405280929190818152602001828054610a7190611407565b8015610abe5780601f10610a9357610100808354040283529160200191610abe565b820191906000526020600020905b815481529060010190602001808311610aa157829003601f168201915b50505050509850878054610ad190611407565b80601f0160208091040260200160405190810160405280929190818152602001828054610afd90611407565b8015610b4a5780601f10610b1f57610100808354040283529160200191610b4a565b820191906000526020600020905b815481529060010190602001808311610b2d57829003601f168201915b50505050509750828054610b5d90611407565b80601f0160208091040260200160405190810160405280929190818152602001828054610b8990611407565b8015610bd65780601f10610bab57610100808354040283529160200191610bd6565b820191906000526020600020905b815481529060010190602001808311610bb957829003601f168201915b505050505092509a509a509a509a509a509a509a509a509a509a50509193959799509193959799565b6005546001600160a01b03163314610c7f5760405162461bcd60e51b815260206004820152603460248201527f536f6c6f206c61206175746f72696461642063656e7472616c2070756564652060448201527f7265616c697a6172206573746120616363696f6e000000000000000000000000606482015260840161035b565b6006811115610cd05760405162461bcd60e51b815260206004820152601e60248201527f5469706f2064652063657274696669636163696f6e20696e76616c69646f0000604482015260640161035b565b6001600160a01b03909116600090815260046020908152604080832093835292905220805460ff19169055565b600080610d0983611025565b9050336001600160a01b0316837f9ca6c8edd136768f64ade6259ec2660b56f853a4795ff9c0180e9ca528c8679842604051610d4791815260200190565b60405180910390a392915050565b6000816006811115610d6957610d696111e2565b33600090815260046020908152604080832084845290915290205460ff1680610d9c57506005546001600160a01b031633145b610e0e5760405162461bcd60e51b815260206004820152603a60248201527f4e6f206573746173206175746f72697a61646f207061726120656d697469722060448201527f65737465207469706f2064652063657274696669636163696f6e000000000000606482015260840161035b565b6001600160a01b038616610e645760405162461bcd60e51b815260206004820152601160248201527f5265636570746f7220696e76616c69646f000000000000000000000000000000604482015260640161035b565b6000845111610eb55760405162461bcd60e51b815260206004820152601e60248201527f4349442064656c20646f63756d656e746f2065732072657175657269646f0000604482015260640161035b565b60038054906000610ec583611441565b9091555050600354600081815260208190526040902090815560018101610eec8a826114b7565b5060028101610efb89826114b7565b506003810180543373ffffffffffffffffffffffffffffffffffffffff19918216179091556004820180549091166001600160a01b0389161790554260058201556006810186905560078101610f5186826114b7565b5060088101805485919060ff19166001836006811115610f7357610f736111e2565b021790555060088101805461ff00191690556001600160a01b038716600081815260016020818152604080842060038054825480870184559287528487209092019190915533808652600284528286208254815496870182559087529390952090930191909155905490517f0466a0e6bf71461579e768e2536cfce630a050c99962cfc5714ee96dbd7c1ae69061100d908a908a90611577565b60405180910390a45050600354979650505050505050565b6000818152602081905260408120805482036110445750600092915050565b6008810154610100900460ff1615801561106d57506006810154158061106d5750428160060154115b9392505050565b6001600160a01b03811660009081526002602090815260409182902080548351818402810184019094528084526060939283018282801561049b57602002820191906000526020600020908154815260200190600101908083116104875750505050509050919050565b80356001600160a01b03811681146110f557600080fd5b919050565b6000806040838503121561110d57600080fd5b611116836110de565b946020939093013593505050565b60006020828403121561113657600080fd5b61106d826110de565b6020808252825182820181905260009190848201906040850190845b818110156111775783518352928401929184019160010161115b565b50909695505050505050565b60006020828403121561119557600080fd5b5035919050565b6000815180845260005b818110156111c2576020818501810151868301820152016111a6565b506000602082860101526020601f19601f83011685010191505092915050565b634e487b7160e01b600052602160045260246000fd5b6007811061121657634e487b7160e01b600052602160045260246000fd5b9052565b60006101408c83528060208401526112348184018d61119c565b90508281036040840152611248818c61119c565b90506001600160a01b03808b166060850152808a166080850152508760a08401528660c084015282810360e0840152611281818761119c565b9150506112926101008301856111f8565b8215156101208301529b9a5050505050505050505050565b634e487b7160e01b600052604160045260246000fd5b600082601f8301126112d157600080fd5b813567ffffffffffffffff808211156112ec576112ec6112aa565b604051601f8301601f19908116603f01168101908282118183101715611314576113146112aa565b8160405283815286602085880101111561132d57600080fd5b836020870160208301376000602085830101528094505050505092915050565b60008060008060008060c0878903121561136657600080fd5b863567ffffffffffffffff8082111561137e57600080fd5b61138a8a838b016112c0565b975060208901359150808211156113a057600080fd5b6113ac8a838b016112c0565b96506113ba60408a016110de565b95506060890135945060808901359150808211156113d757600080fd5b506113e489828a016112c0565b92505060a0870135600781106113f957600080fd5b809150509295509295509295565b600181811c9082168061141b57607f821691505b60208210810361143b57634e487b7160e01b600052602260045260246000fd5b50919050565b60006001820161146157634e487b7160e01b600052601160045260246000fd5b5060010190565b601f8211156114b257600081815260208120601f850160051c8101602086101561148f5750805b601f850160051c820191505b818110156114ae5782815560010161149b565b5050505b505050565b815167ffffffffffffffff8111156114d1576114d16112aa565b6114e5816114df8454611407565b84611468565b602080601f83116001811461151a57600084156115025750858301515b600019600386901b1c1916600185901b1785556114ae565b600085815260208120601f198616915b828110156115495788860151825594840194600190910190840161152a565b50858210156115675787850151600019600388901b60f8161c191681555b5050505050600190811b01905550565b60408152600061158a604083018561119c565b905061106d60208301846111f856fea264697066735822122001db6c22df3fde614cab2df096c25a6feff849dd93f6f8a36d2c86e27e4ef6ff64736f6c63430008140033",
  "linkReferences": {},
  "deployedLinkReferences": {}
}