{
  "_format": "hh-sol-artifact-1",
  "contractName": "LicitacionesPresupuestos",
  "sourceName": "contracts/LicitacionesPresupuestos.sol",
  "abi": [
    {
      "anonymous": false,
      "inputs": [
        {
          "indexed": true,
          "internalType": "uint256",
          "name": "licitacionId",
          "type": "uint256"
        },
        {
          "indexed": true,
          "internalType": "uint256",
          "name": "ofertaId",
          "type": "uint256"
        },
        {
          "indexed": true,
          "internalType": "address",
          "name": "contratista",
          "type": "address"
        }
      ],
      "name": "LicitacionAdjudicada",
      "type": "event"
    },
    {
      "anonymous": false,
      "inputs": [
        {
          "indexed": true,
          "internalType": "uint256",
          "name": "id",
          "type": "uint256"
        },
        {
          "indexed": false,
          "internalType": "uint256",
          "name": "timestamp",
          "type": "uint256"
        }
      ],
      "name": "LicitacionCerrada",
      "type": "event"
    },
    {
      "anonymous": false,
      "inputs": [
        {
          "indexed": true,
          "internalType": "uint256",
          "name": "id",
          "type": "uint256"
        },
        {
          "indexed": true,
          "internalType": "address",
          "name": "creador",
          "type": "address"
        },
        {
          "indexed": false,
          "internalType": "string",
          "name": "documentacionCid",
          "type": "string"
        },
        {
          "indexed": false,
          "internalType": "uint256",
          "name": "fechaLimite",
          "type": "uint256"
        }
      ],
      "name": "LicitacionCreada",
      "type": "event"
    },
    {
      "anonymous": false,
      "inputs": [
        {
          "indexed": true,
          "internalType": "uint256",
          "name": "id",
          "type": "uint256"
        },
        {
          "indexed": true,
          "internalType": "uint256",
          "name": "licitacionId",
          "type": "uint256"
        },
        {
          "indexed": true,
          "internalType": "address",
          "name": "contratista",
          "type": "address"
        },
        {
          "indexed": false,
          "internalType": "string",
          "name": "propuestaCid",
          "type": "string"
        },
        {
          "indexed": false,
          "internalType": "uint256",
          "name": "monto",
          "type": "uint256"
        }
      ],
      "name": "OfertaPresentada",
      "type": "event"
    },
    {
      "inputs": [
        {
          "internalType": "uint256",
          "name": "_licitacionId",
          "type": "uint256"
        },
        {
          "internalType": "uint256",
          "name": "_ofertaId",
          "type": "uint256"
        }
      ],
      "name": "adjudicarLicitacion",
      "outputs": [],
      "stateMutability": "nonpayable",
      "type": "function"
    },
    {
      "inputs": [
        {
          "internalType": "uint256",
          "name": "_licitacionId",
          "type": "uint256"
        }
      ],
      "name": "cerrarLicitacion",
      "outputs": [],
      "stateMutability": "nonpayable",
      "type": "function"
    },
    {
      "inputs": [
        {
          "internalType": "string",
          "name": "_nombre",
          "type": "string"
        },
        {
          "internalType": "string",
          "name": "_descripcion",
          "type": "string"
        },
        {
          "internalType": "uint256",
          "name": "_presupuestoMaximo",
          "type": "uint256"
        },
        {
          "internalType": "uint256",
          "name": "_fechaLimite",
          "type": "uint256"
        },
        {
          "internalType": "string",
          "name": "_documentacionCid",
          "type": "string"
        }
      ],
      "name": "crearLicitacion",
      "outputs": [
        {
          "internalType": "uint256",
          "name": "",
          "type": "uint256"
        }
      ],
      "stateMutability": "nonpayable",
      "type": "function"
    },
    {
      "inputs": [
        {
          "internalType": "uint256",
          "name": "",
          "type": "uint256"
        }
      ],
      "name": "licitaciones",
      "outputs": [
        {
          "internalType": "uint256",
          "name": "id",
          "type": "uint256"
        },
        {
          "internalType": "string",
          "name": "nombre",
          "type": "string"
        },
        {
          "internalType": "string",
          "name": "descripcion",
          "type": "string"
        },
        {
          "internalType": "address",
          "name": "creador",
          "type": "address"
        },
        {
          "internalType": "uint256",
          "name": "presupuestoMaximo",
          "type": "uint256"
        },
        {
          "internalType": "uint256",
          "name": "fechaCreacion",
          "type": "uint256"
        },
        {
          "internalType": "uint256",
          "name": "fechaLimite",
          "type": "uint256"
        },
        {
          "internalType": "string",
          "name": "documentacionCid",
          "type": "string"
        },
        {
          "internalType": "bool",
          "name": "abierta",
          "type": "bool"
        },
        {
          "internalType": "bool",
          "name": "adjudicada",
          "type": "bool"
        },
        {
          "internalType": "address",
          "name": "contratista",
          "type": "address"
        },
        {
          "internalType": "uint256",
          "name": "ofertaGanadora",
          "type": "uint256"
        }
      ],
      "stateMutability": "view",
      "type": "function"
    },
    {
      "inputs": [
        {
          "internalType": "address",
          "name": "",
          "type": "address"
        },
        {
          "internalType": "uint256",
          "name": "",
          "type": "uint256"
        }
      ],
      "name": "licitacionesPorCreador",
      "outputs": [
        {
          "internalType": "uint256",
          "name": "",
          "type": "uint256"
        }
      ],
      "stateMutability": "view",
      "type": "function"
    },
    {
      "inputs": [
        {
          "internalType": "uint256",
          "name": "_licitacionId",
          "type": "uint256"
        }
      ],
      "name": "obtenerLicitacion",
      "outputs": [
        {
          "internalType": "uint256",
          "name": "",
          "type": "uint256"
        },
        {
          "internalType": "string",
          "name": "",
          "type": "string"
        },
        {
          "internalType": "string",
          "name": "",
          "type": "string"
        },
        {
          "internalType": "address",
          "name": "",
          "type": "address"
        },
        {
          "internalType": "uint256",
          "name": "",
          "type": "uint256"
        },
        {
          "internalType": "uint256",
          "name": "",
          "type": "uint256"
        },
        {
          "internalType": "uint256",
          "name": "",
          "type": "uint256"
        },
        {
          "internalType": "string",
          "name": "",
          "type": "string"
        },
        {
          "internalType": "bool",
          "name": "",
          "type": "bool"
        },
        {
          "internalType": "bool",
          "name": "",
          "type": "bool"
        },
        {
          "internalType": "address",
          "name": "",
          "type": "address"
        },
        {
          "internalType": "uint256",
          "name": "",
          "type": "uint256"
        }
      ],
      "stateMutability": "view",
      "type": "function"
    },
    {
      "inputs": [
        {
          "internalType": "address",
          "name": "_creador",
          "type": "address"
        }
      ],
      "name": "obtenerLicitacionesDeCreador",
      "outputs": [
        {
          "internalType": "uint256[]",
          "name": "",
          "type": "uint256[]"
        }
      ],
      "stateMutability": "view",
      "type": "function"
    },
    {
      "inputs": [
        {
          "internalType": "uint256",
          "name": "_ofertaId",
          "type": "uint256"
        }
      ],
      "name": "obtenerOferta",
      "outputs": [
        {
          "internalType": "uint256",
          "name": "",
          "type": "uint256"
        },
        {
          "internalType": "uint256",
          "name": "",
          "type": "uint256"
        },
        {
          "internalType": "address",
          "name": "",
          "type": "address"
        },
        {
          "internalType": "uint256",
          "name": "",
          "type": "uint256"
        },
        {
          "internalType": "uint256",
          "name": "",
          "type": "uint256"
        },
        {
          "internalType": "string",
          "name": "",
          "type": "string"
        },
        {
          "internalType": "bool",
          "name": "",
          "type": "bool"
        }
      ],
      "stateMutability": "view",
      "type": "function"
    },
    {
      "inputs": [
        {
          "internalType": "address",
          "name": "_contratista",
          "type": "address"
        }
      ],
      "name": "obtenerOfertasDeContratista",
      "outputs": [
        {
          "internalType": "uint256[]",
          "name": "",
          "type": "uint256[]"
        }
      ],
      "stateMutability": "view",
      "type": "function"
    },
    {
      "inputs": [
        {
          "internalType": "uint256",
          "name": "_licitacionId",
          "type": "uint256"
        }
      ],
      "name": "obtenerOfertasDeLicitacion",
      "outputs": [
        {
          "internalType": "uint256[]",
          "name": "",
          "type": "uint256[]"
        }
      ],
      "stateMutability": "view",
      "type": "function"
    },
    {
      "inputs": [
        {
          "internalType": "uint256",
          "name": "",
          "type": "uint256"
        }
      ],
      "name": "ofertas",
      "outputs": [
        {
          "internalType": "uint256",
          "name": "id",
          "type": "uint256"
        },
        {
          "internalType": "uint256",
          "name": "licitacionId",
          "type": "uint256"
        },
        {
          "internalType": "address",
          "name": "contratista",
          "type": "address"
        },
        {
          "internalType": "uint256",
          "name": "monto",
          "type": "uint256"
        },
        {
          "internalType": "uint256",
          "name": "tiempoEstimado",
          "type": "uint256"
        },
        {
          "internalType": "string",
          "name": "propuestaCid",
          "type": "string"
        },
        {
          "internalType": "bool",
          "name": "seleccionada",
          "type": "bool"
        }
      ],
      "stateMutability": "view",
      "type": "function"
    },
    {
      "inputs": [
        {
          "internalType": "address",
          "name": "",
          "type": "address"
        },
        {
          "internalType": "uint256",
          "name": "",
          "type": "uint256"
        }
      ],
      "name": "ofertasPorContratista",
      "outputs": [
        {
          "internalType": "uint256",
          "name": "",
          "type": "uint256"
        }
      ],
      "stateMutability": "view",
      "type": "function"
    },
    {
      "inputs": [
        {
          "internalType": "uint256",
          "name": "",
          "type": "uint256"
        },
        {
          "internalType": "uint256",
          "name": "",
          "type": "uint256"
        }
      ],
      "name": "ofertasPorLicitacion",
      "outputs": [
        {
          "internalType": "uint256",
          "name": "",
          "type": "uint256"
        }
      ],
      "stateMutability": "view",
      "type": "function"
    },
    {
      "inputs": [
        {
          "internalType": "uint256",
          "name": "_licitacionId",
          "type": "uint256"
        },
        {
          "internalType": "uint256",
          "name": "_monto",
          "type": "uint256"
        },
        {
          "internalType": "uint256",
          "name": "_tiempoEstimado",
          "type": "uint256"
        },
        {
          "internalType": "string",
          "name": "_propuestaCid",
          "type": "string"
        }
      ],
      "name": "presentarOferta",
      "outputs": [
        {
          "internalType": "uint256",
          "name": "",
          "type": "uint256"
        }
      ],
      "stateMutability": "nonpayable",
      "type": "function"
    }
  ],
  "bytecode": "0x608060405234801561001057600080fd5b50611ad4806100206000396000f3fe608060405234801561001057600080fd5b50600436106100ea5760003560e01c8063834b9e491161008c578063993e00ca11610066578063993e00ca146101fa578063b736b3781461020d578063ba61ddc514610220578063ec456ace1461023357600080fd5b8063834b9e49146101a957806384096037146101bc5780638928fc70146101e757600080fd5b80635d18dbb7116100c85780635d18dbb7146101505780637100f9991461016357806371bd7fd81461017657806372e897191461019657600080fd5b80632ac9b458146100ef5780634352b9491461010457806356afff7c1461012a575b600080fd5b6101026100fd366004611550565b610246565b005b61011761011236600461158e565b61050a565b6040519081526020015b60405180910390f35b61013d6101383660046115b8565b61053b565b6040516101219796959493929190611617565b61011761015e366004611550565b61060e565b61013d6101713660046115b8565b61062a565b610189610184366004611667565b61076d565b6040516101219190611689565b6101026101a43660046115b8565b6107d9565b6101176101b7366004611770565b6109b6565b6101cf6101ca3660046115b8565b610be2565b6040516101219c9b9a9998979695949392919061180c565b6101176101f53660046118b2565b610df5565b610189610208366004611667565b6111c6565b6101cf61021b3660046115b8565b611230565b61011761022e36600461158e565b6114d4565b6101896102413660046115b8565b6114f0565b60008281526020819052604090206003015482906001600160a01b031633146102c95760405162461bcd60e51b815260206004820152602a60248201527f536f6c6f20656c2063726561646f72207075656465207265616c697a6172206560448201526939ba309030b1b1b4b7b760b11b60648201526084015b60405180910390fd5b6000838152602081815260408083208584526001909252909120600882015460ff166103375760405162461bcd60e51b815260206004820152601d60248201527f4c61206c696369746163696f6e206e6f2065737461206162696572746100000060448201526064016102c0565b6008820154610100900460ff161561039d5760405162461bcd60e51b815260206004820152602360248201527f4c61206c696369746163696f6e207961206861207369646f2061646a7564696360448201526261646160e81b60648201526084016102c0565b848160010154146104165760405162461bcd60e51b815260206004820152602860248201527f4c61206f6665727461206e6f2070657274656e65636520612065737461206c6960448201527f6369746163696f6e00000000000000000000000000000000000000000000000060648201526084016102c0565b80546000036104675760405162461bcd60e51b815260206004820152601060248201527f4f6665727461206e6f206578697374650000000000000000000000000000000060448201526064016102c0565b60088201805461010061ffff198216811783556002840180547fffffffffffffffffffff000000000000000000000000000000000000000000009093166001600160a01b039384166201000002179091179092556009840186905560068301805460ff191660011790559054604051911690859087907ff5b0afa8a1e2213c4b0dad54a9dbc3fab43b393fe8bc26276be86530938d0e3c90600090a45050505050565b6003602052816000526040600020818154811061052657600080fd5b90600052602060002001600091509150505481565b600160208190526000918252604090912080549181015460028201546003830154600484015460058501805494956001600160a01b0390941694929391926105829061190c565b80601f01602080910402602001604051908101604052809291908181526020018280546105ae9061190c565b80156105fb5780601f106105d0576101008083540402835291602001916105fb565b820191906000526020600020905b8154815290600101906020018083116105de57829003601f168201915b5050506006909301549192505060ff1687565b6002602052816000526040600020818154811061052657600080fd5b600081815260016020526040812080548291829182918291606091839182036106955760405162461bcd60e51b815260206004820152601060248201527f4f6665727461206e6f206578697374650000000000000000000000000000000060448201526064016102c0565b8054600182015460028301546003840154600485015460068601546005870180546001600160a01b0390951694909160ff169082906106d39061190c565b80601f01602080910402602001604051908101604052809291908181526020018280546106ff9061190c565b801561074c5780601f106107215761010080835404028352916020019161074c565b820191906000526020600020905b81548152906001019060200180831161072f57829003601f168201915b50505050509150975097509750975097509750975050919395979092949650565b6001600160a01b0381166000908152600460209081526040918290208054835181840281018401909452808452606093928301828280156107cd57602002820191906000526020600020905b8154815260200190600101908083116107b9575b50505050509050919050565b60008181526020819052604090206003015481906001600160a01b031633146108575760405162461bcd60e51b815260206004820152602a60248201527f536f6c6f20656c2063726561646f72207075656465207265616c697a6172206560448201526939ba309030b1b1b4b7b760b11b60648201526084016102c0565b600082815260208190526040812080549091036108b65760405162461bcd60e51b815260206004820152601460248201527f4c696369746163696f6e206e6f2065786973746500000000000000000000000060448201526064016102c0565b600881015460ff1661090a5760405162461bcd60e51b815260206004820152601d60248201527f4c61206c696369746163696f6e206e6f2065737461206162696572746100000060448201526064016102c0565b6008810154610100900460ff16156109705760405162461bcd60e51b815260206004820152602360248201527f4c61206c696369746163696f6e207961206861207369646f2061646a7564696360448201526261646160e81b60648201526084016102c0565b60088101805460ff1916905560405142815283907f018e958e0ab20bee9d922dadc174244bd1f9c62c066d7fca41deaabba02ead169060200160405180910390a2505050565b6000428311610a2d5760405162461bcd60e51b815260206004820152602560248201527f4c61206665636861206c696d69746520646562652073657220656e20656c206660448201527f757475726f00000000000000000000000000000000000000000000000000000060648201526084016102c0565b6000825111610a7e5760405162461bcd60e51b815260206004820152601e60248201527f43494420646f63756d656e746163696f6e2065732072657175657269646f000060448201526064016102c0565b60008411610ace5760405162461bcd60e51b815260206004820152601e60248201527f507265737570756573746f206465626520736572206d61796f7220612030000060448201526064016102c0565b60058054906000610ade83611946565b9091555050600554600081815260208190526040902090815560018101610b0588826119bc565b5060028101610b1487826119bc565b5060038101805473ffffffffffffffffffffffffffffffffffffffff191633179055600481018590554260058201556006810184905560078101610b5884826119bc565b5060088101805461ffff19166001908117909155336000818152600360209081526040808320600580548254978801835591855292909320909401919091555491519091907f4817617005ea2789fb3eea020c7385d6ded6d4459f1b5d24aae81abd7d7e703490610bcc9087908990611a7c565b60405180910390a3505060055495945050505050565b60006020819052908152604090208054600182018054919291610c049061190c565b80601f0160208091040260200160405190810160405280929190818152602001828054610c309061190c565b8015610c7d5780601f10610c5257610100808354040283529160200191610c7d565b820191906000526020600020905b815481529060010190602001808311610c6057829003601f168201915b505050505090806002018054610c929061190c565b80601f0160208091040260200160405190810160405280929190818152602001828054610cbe9061190c565b8015610d0b5780601f10610ce057610100808354040283529160200191610d0b565b820191906000526020600020905b815481529060010190602001808311610cee57829003601f168201915b505050600384015460048501546005860154600687015460078801805497986001600160a01b03909516979396509194509291610d479061190c565b80601f0160208091040260200160405190810160405280929190818152602001828054610d739061190c565b8015610dc05780601f10610d9557610100808354040283529160200191610dc0565b820191906000526020600020905b815481529060010190602001808311610da357829003601f168201915b505050506008830154600990930154919260ff8082169361010083049091169250620100009091046001600160a01b0316908c565b60008481526020819052604081205485908203610e545760405162461bcd60e51b815260206004820152601460248201527f4c696369746163696f6e206e6f2065786973746500000000000000000000000060448201526064016102c0565b60008181526020819052604090206008015460ff168015610e8c5750600081815260208190526040902060080154610100900460ff16155b8015610ea957506000818152602081905260409020600601544211155b610f1b5760405162461bcd60e51b815260206004820152602a60248201527f4c61206c696369746163696f6e206e6f2065737461206162696572746120706160448201527f7261206f6665727461730000000000000000000000000000000000000000000060648201526084016102c0565b60008511610f6b5760405162461bcd60e51b815260206004820181905260248201527f456c206d6f6e746f206465626520736572206d61796f7220717565206365726f60448201526064016102c0565b600086815260208190526040902060040154851115610ff25760405162461bcd60e51b815260206004820152602660248201527f4c61206f66657274612065786365646520656c20707265737570756573746f2060448201527f6d6178696d6f000000000000000000000000000000000000000000000000000060648201526084016102c0565b600084116110685760405162461bcd60e51b815260206004820152602a60248201527f456c207469656d706f20657374696d61646f206465626520736572206d61796f60448201527f7220717565206365726f0000000000000000000000000000000000000000000060648201526084016102c0565b60008351116110b95760405162461bcd60e51b815260206004820152601a60248201527f4349442070726f7075657374612065732072657175657269646f00000000000060448201526064016102c0565b600680549060006110c983611946565b90915550506006546000818152600160208190526040909120918255810187905560028101805473ffffffffffffffffffffffffffffffffffffffff19163317905560038101869055600481018590556005810161112785826119bc565b506006808201805460ff19169055600088815260026020908152604080832084548154600181810184559286528486200155338085526004845282852086548154938401825590865293909420019190915591549151909189917f3ae76b454a2e9ac0147b0a6d9ca451ce1bc2171ceef38c22990b7a269d515c42906111b09089908c90611a7c565b60405180910390a4505060065495945050505050565b6001600160a01b0381166000908152600360209081526040918290208054835181840281018401909452808452606093928301828280156107cd57602002820191906000526020600020908154815260200190600101908083116107b95750505050509050919050565b6000606080600080600080606060008060008060008060008f8152602001908152602001600020905080600001546000036112ad5760405162461bcd60e51b815260206004820152601460248201527f4c696369746163696f6e206e6f2065786973746500000000000000000000000060448201526064016102c0565b8054600382015460048301546005840154600685015460088601546009870154600188018054909660028a01966001600160a01b039182169690959094909360078c019360ff808416946101008504909116936201000090041691908b906113149061190c565b80601f01602080910402602001604051908101604052809291908181526020018280546113409061190c565b801561138d5780601f106113625761010080835404028352916020019161138d565b820191906000526020600020905b81548152906001019060200180831161137057829003601f168201915b50505050509a508980546113a09061190c565b80601f01602080910402602001604051908101604052809291908181526020018280546113cc9061190c565b80156114195780601f106113ee57610100808354040283529160200191611419565b820191906000526020600020905b8154815290600101906020018083116113fc57829003601f168201915b5050505050995084805461142c9061190c565b80601f01602080910402602001604051908101604052809291908181526020018280546114589061190c565b80156114a55780601f1061147a576101008083540402835291602001916114a5565b820191906000526020600020905b81548152906001019060200180831161148857829003601f168201915b505050505094509c509c509c509c509c509c509c509c509c509c509c509c505091939597999b5091939597999b565b6004602052816000526040600020818154811061052657600080fd5b6000818152600260209081526040918290208054835181840281018401909452808452606093928301828280156107cd57602002820191906000526020600020908154815260200190600101908083116107b95750505050509050919050565b6000806040838503121561156357600080fd5b50508035926020909101359150565b80356001600160a01b038116811461158957600080fd5b919050565b600080604083850312156115a157600080fd5b6115aa83611572565b946020939093013593505050565b6000602082840312156115ca57600080fd5b5035919050565b6000815180845260005b818110156115f7576020818501810151868301820152016115db565b506000602082860101526020601f19601f83011685010191505092915050565b8781528660208201526001600160a01b038616604082015284606082015283608082015260e060a0820152600061165160e08301856115d1565b905082151560c083015298975050505050505050565b60006020828403121561167957600080fd5b61168282611572565b9392505050565b6020808252825182820181905260009190848201906040850190845b818110156116c1578351835292840192918401916001016116a5565b50909695505050505050565b634e487b7160e01b600052604160045260246000fd5b600082601f8301126116f457600080fd5b813567ffffffffffffffff8082111561170f5761170f6116cd565b604051601f8301601f19908116603f01168101908282118183101715611737576117376116cd565b8160405283815286602085880101111561175057600080fd5b836020870160208301376000602085830101528094505050505092915050565b600080600080600060a0868803121561178857600080fd5b853567ffffffffffffffff808211156117a057600080fd5b6117ac89838a016116e3565b965060208801359150808211156117c257600080fd5b6117ce89838a016116e3565b9550604088013594506060880135935060808801359150808211156117f257600080fd5b506117ff888289016116e3565b9150509295509295909350565b60006101808e83528060208401526118268184018f6115d1565b9050828103604084015261183a818e6115d1565b90506001600160a01b038c1660608401528a60808401528960a08401528860c084015282810360e084015261186f81896115d1565b91505085151561010083015284151561012083015261189a6101408301856001600160a01b03169052565b826101608301529d9c50505050505050505050505050565b600080600080608085870312156118c857600080fd5b843593506020850135925060408501359150606085013567ffffffffffffffff8111156118f457600080fd5b611900878288016116e3565b91505092959194509250565b600181811c9082168061192057607f821691505b60208210810361194057634e487b7160e01b600052602260045260246000fd5b50919050565b60006001820161196657634e487b7160e01b600052601160045260246000fd5b5060010190565b601f8211156119b757600081815260208120601f850160051c810160208610156119945750805b601f850160051c820191505b818110156119b3578281556001016119a0565b5050505b505050565b815167ffffffffffffffff8111156119d6576119d66116cd565b6119ea816119e4845461190c565b8461196d565b602080601f831160018114611a1f5760008415611a075750858301515b600019600386901b1c1916600185901b1785556119b3565b600085815260208120601f198616915b82811015611a4e57888601518255948401946001909101908401611a2f565b5085821015611a6c5787850151600019600388901b60f8161c191681555b5050505050600190811b01905550565b604081526000611a8f60408301856115d1565b9050826020830152939250505056fea26469706673582212206126735d4e3d7282804f9f7cab5cb13685e8d9a0f6c453ee2a397426df953a3364736f6c63430008140033",
  "linkReferences": {},
  "deployedLinkReferences": {}
}