{
  "_format": "hh-sol-artifact-1",
  "contractName": "ProyectoConstruccion",
  "sourceName": "contracts/ProyectoConstruccion.sol",
  "abi": [
    {
      "anonymous": false,
      "inputs": [
        {
          "indexed": false,
          "internalType": "uint256",
          "name": "proyectoId",
          "type": "uint256"
        },
        {
          "indexed": false,
          "internalType": "enum ProyectoConstruccion.Fase",
          "name": "fasePrevia",
          "type": "uint8"
        },
        {
          "indexed": false,
          "internalType": "enum ProyectoConstruccion.Fase",
          "name": "faseNueva",
          "type": "uint8"
        }
      ],
      "name": "FaseActualizada",
      "type": "event"
    },
    {
      "anonymous": false,
      "inputs": [
        {
          "indexed": false,
          "internalType": "uint256",
          "name": "proyectoId",
          "type": "uint256"
        },
        {
          "indexed": false,
          "internalType": "uint256",
          "name": "hitoId",
          "type": "uint256"
        },
        {
          "indexed": false,
          "internalType": "address",
          "name": "completadoPor",
          "type": "address"
        }
      ],
      "name": "HitoCompletado",
      "type": "event"
    },
    {
      "anonymous": false,
      "inputs": [
        {
          "indexed": false,
          "internalType": "uint256",
          "name": "id",
          "type": "uint256"
        },
        {
          "indexed": false,
          "internalType": "string",
          "name": "nombre",
          "type": "string"
        },
        {
          "indexed": false,
          "internalType": "address",
          "name": "propietario",
          "type": "address"
        }
      ],
      "name": "ProyectoCreado",
      "type": "event"
    },
    {
      "inputs": [
        {
          "internalType": "uint256",
          "name": "_proyectoId",
          "type": "uint256"
        },
        {
          "internalType": "string",
          "name": "_descripcion",
          "type": "string"
        },
        {
          "internalType": "uint256",
          "name": "_presupuesto",
          "type": "uint256"
        },
        {
          "internalType": "uint256",
          "name": "_fechaLimite",
          "type": "uint256"
        },
        {
          "internalType": "address",
          "name": "_responsable",
          "type": "address"
        }
      ],
      "name": "anadirHito",
      "outputs": [
        {
          "internalType": "uint256",
          "name": "",
          "type": "uint256"
        }
      ],
      "stateMutability": "nonpayable",
      "type": "function"
    },
    {
      "inputs": [
        {
          "internalType": "uint256",
          "name": "_proyectoId",
          "type": "uint256"
        }
      ],
      "name": "avanzarFase",
      "outputs": [],
      "stateMutability": "nonpayable",
      "type": "function"
    },
    {
      "inputs": [
        {
          "internalType": "uint256",
          "name": "_proyectoId",
          "type": "uint256"
        }
      ],
      "name": "calcularProgresoProyecto",
      "outputs": [
        {
          "internalType": "uint256",
          "name": "",
          "type": "uint256"
        }
      ],
      "stateMutability": "view",
      "type": "function"
    },
    {
      "inputs": [
        {
          "internalType": "uint256",
          "name": "_hitoId",
          "type": "uint256"
        }
      ],
      "name": "completarHito",
      "outputs": [],
      "stateMutability": "nonpayable",
      "type": "function"
    },
    {
      "inputs": [
        {
          "internalType": "string",
          "name": "_nombre",
          "type": "string"
        },
        {
          "internalType": "string",
          "name": "_ubicacion",
          "type": "string"
        },
        {
          "internalType": "uint256",
          "name": "_presupuestoTotal",
          "type": "uint256"
        },
        {
          "internalType": "uint256",
          "name": "_fechaInicio",
          "type": "uint256"
        },
        {
          "internalType": "uint256",
          "name": "_fechaFinPrevista",
          "type": "uint256"
        }
      ],
      "name": "crearProyecto",
      "outputs": [
        {
          "internalType": "uint256",
          "name": "",
          "type": "uint256"
        }
      ],
      "stateMutability": "nonpayable",
      "type": "function"
    },
    {
      "inputs": [
        {
          "internalType": "uint256",
          "name": "",
          "type": "uint256"
        }
      ],
      "name": "hitos",
      "outputs": [
        {
          "internalType": "uint256",
          "name": "id",
          "type": "uint256"
        },
        {
          "internalType": "uint256",
          "name": "proyectoId",
          "type": "uint256"
        },
        {
          "internalType": "string",
          "name": "descripcion",
          "type": "string"
        },
        {
          "internalType": "uint256",
          "name": "presupuesto",
          "type": "uint256"
        },
        {
          "internalType": "uint256",
          "name": "fechaLimite",
          "type": "uint256"
        },
        {
          "internalType": "bool",
          "name": "completado",
          "type": "bool"
        },
        {
          "internalType": "address",
          "name": "responsable",
          "type": "address"
        }
      ],
      "stateMutability": "view",
      "type": "function"
    },
    {
      "inputs": [
        {
          "internalType": "uint256",
          "name": "",
          "type": "uint256"
        },
        {
          "internalType": "uint256",
          "name": "",
          "type": "uint256"
        }
      ],
      "name": "hitosDelProyecto",
      "outputs": [
        {
          "internalType": "uint256",
          "name": "",
          "type": "uint256"
        }
      ],
      "stateMutability": "view",
      "type": "function"
    },
    {
      "inputs": [
        {
          "internalType": "uint256",
          "name": "_proyectoId",
          "type": "uint256"
        }
      ],
      "name": "obtenerHitosDeProyecto",
      "outputs": [
        {
          "internalType": "uint256[]",
          "name": "",
          "type": "uint256[]"
        }
      ],
      "stateMutability": "view",
      "type": "function"
    },
    {
      "inputs": [
        {
          "internalType": "uint256",
          "name": "_proyectoId",
          "type": "uint256"
        }
      ],
      "name": "obtenerProyecto",
      "outputs": [
        {
          "internalType": "uint256",
          "name": "",
          "type": "uint256"
        },
        {
          "internalType": "string",
          "name": "",
          "type": "string"
        },
        {
          "internalType": "string",
          "name": "",
          "type": "string"
        },
        {
          "internalType": "uint256",
          "name": "",
          "type": "uint256"
        },
        {
          "internalType": "uint256",
          "name": "",
          "type": "uint256"
        },
        {
          "internalType": "uint256",
          "name": "",
          "type": "uint256"
        },
        {
          "internalType": "uint256",
          "name": "",
          "type": "uint256"
        },
        {
          "internalType": "address",
          "name": "",
          "type": "address"
        },
        {
          "internalType": "bool",
          "name": "",
          "type": "bool"
        },
        {
          "internalType": "enum ProyectoConstruccion.Fase",
          "name": "",
          "type": "uint8"
        }
      ],
      "stateMutability": "view",
      "type": "function"
    },
    {
      "inputs": [
        {
          "internalType": "uint256",
          "name": "",
          "type": "uint256"
        }
      ],
      "name": "proyectos",
      "outputs": [
        {
          "internalType": "uint256",
          "name": "id",
          "type": "uint256"
        },
        {
          "internalType": "string",
          "name": "nombre",
          "type": "string"
        },
        {
          "internalType": "string",
          "name": "ubicacion",
          "type": "string"
        },
        {
          "internalType": "uint256",
          "name": "presupuestoTotal",
          "type": "uint256"
        },
        {
          "internalType": "uint256",
          "name": "fondosDisponibles",
          "type": "uint256"
        },
        {
          "internalType": "uint256",
          "name": "fechaInicio",
          "type": "uint256"
        },
        {
          "internalType": "uint256",
          "name": "fechaFinPrevista",
          "type": "uint256"
        },
        {
          "internalType": "address",
          "name": "propietario",
          "type": "address"
        },
        {
          "internalType": "bool",
          "name": "activo",
          "type": "bool"
        },
        {
          "internalType": "enum ProyectoConstruccion.Fase",
          "name": "faseActual",
          "type": "uint8"
        }
      ],
      "stateMutability": "view",
      "type": "function"
    }
  ],
  "bytecode": "0x608060405234801561001057600080fd5b50611454806100206000396000f3fe608060405234801561001057600080fd5b50600436106100be5760003560e01c80636fe7097c1161007657806389b43d131161005b57806389b43d1314610197578063eca27b72146101aa578063fc5ca186146101bd57600080fd5b80636fe7097c1461016457806384d99f531461017757600080fd5b806339db6608116100a757806339db660814610113578063464cb68d14610128578063642692331461013b57600080fd5b806334a0a75f146100c357806337bd8359146100f2575b600080fd5b6100d66100d1366004610e72565b6101d0565b6040516100e99796959493929190610ed1565b60405180910390f35b610105610100366004610fc2565b6102a2565b6040519081526020016100e9565b610126610121366004610e72565b61038d565b005b610105610136366004611041565b6105f9565b61014e610149366004610e72565b61082a565b6040516100e99a999897969594939291906110f4565b610105610172366004611172565b6109cf565b61018a610185366004610e72565b610a00565b6040516100e99190611194565b6101056101a5366004610e72565b610a62565b6101266101b8366004610e72565b610b57565b61014e6101cb366004610e72565b610d01565b600360205260009081526040902080546001820154600283018054929391926101f8906111d8565b80601f0160208091040260200160405190810160405280929190818152602001828054610224906111d8565b80156102715780601f1061024657610100808354040283529160200191610271565b820191906000526020600020905b81548152906001019060200180831161025457829003601f168201915b50505050600383015460048401546005909401549293909290915060ff81169061010090046001600160a01b031687565b6000805481806102b183611228565b90915550506000805480825260026020526040909120908155600181016102d88882611290565b50600281016102e78782611290565b506003810185905560048101859055600581018490556006810183905560078101805460ff60a01b193390811674ffffffffffffffffffffffffffffffffffffffffff1990921691909117600160a01b1760ff60a81b19169091556000546040517faf6cab7b88a44e0b0ff38562da420d61ca6a1b67c17679119d6834a42931a6739261037792918b9190611350565b60405180910390a1505060005495945050505050565b60008181526002602052604090206007015481906001600160a01b031633146104235760405162461bcd60e51b815260206004820152602e60248201527f536f6c6f20656c2070726f706965746172696f207075656465207265616c697a60448201527f6172206573746120616363696f6e00000000000000000000000000000000000060648201526084015b60405180910390fd5b6000828152600260205260409020600701548290600160a01b900460ff1661048d5760405162461bcd60e51b815260206004820152601a60248201527f456c2070726f796563746f206e6f20657374612061637469766f000000000000604482015260640161041a565b60008381526002602052604090206007810154600160a81b900460ff16600581818111156104bd576104bd6110bc565b0361050a5760405162461bcd60e51b815260206004820152601e60248201527f456c2070726f796563746f20796120657374612066696e616c697a61646f0000604482015260640161041a565b6007820154600160a81b900460ff16600581111561052a5761052a6110bc565b610535906001611382565b6005811115610546576105466110bc565b60078301805460ff60a81b1916600160a81b83600581111561056a5761056a6110bc565b02179055507f197bf9ef090c31985445202a7e456bc8eff8dc4472d4b17e43a30cc53da6749085828460070160159054906101000a900460ff166040516105b39392919061139b565b60405180910390a160056007830154600160a81b900460ff1660058111156105dd576105dd6110bc565b036105f25760078201805460ff60a01b191690555b5050505050565b60008581526002602052604081206007015486906001600160a01b0316331461068a5760405162461bcd60e51b815260206004820152602e60248201527f536f6c6f20656c2070726f706965746172696f207075656465207265616c697a60448201527f6172206573746120616363696f6e000000000000000000000000000000000000606482015260840161041a565b6000878152600260205260409020600701548790600160a01b900460ff166106f45760405162461bcd60e51b815260206004820152601a60248201527f456c2070726f796563746f206e6f20657374612061637469766f000000000000604482015260640161041a565b6000888152600260205260409020600401548611156107555760405162461bcd60e51b815260206004820152601860248201527f507265737570756573746f20696e737566696369656e74650000000000000000604482015260640161041a565b6001805490600061076583611228565b9091555050600180546000818152600360205260409020908155908101899055600281016107938982611290565b5060038101879055600480820187905560058201805474ffffffffffffffffffffffffffffffffffffffffff19166101006001600160a01b0389160217905560008a815260026020526040812090910180548992906107f39084906113bc565b9091555050506000978852505060046020908152604087206001805482548083018455928a52929098200155505092549392505050565b600081815260026020819052604082208054600382015460048301546005840154600685015460078601546001870180546060998a998c998a998a998a998a998a998a99969895978901956001600160a01b0382169160ff600160a01b8204811692600160a81b909204169089906108a1906111d8565b80601f01602080910402602001604051908101604052809291908181526020018280546108cd906111d8565b801561091a5780601f106108ef5761010080835404028352916020019161091a565b820191906000526020600020905b8154815290600101906020018083116108fd57829003601f168201915b5050505050985087805461092d906111d8565b80601f0160208091040260200160405190810160405280929190818152602001828054610959906111d8565b80156109a65780601f1061097b576101008083540402835291602001916109a6565b820191906000526020600020905b81548152906001019060200180831161098957829003601f168201915b505050505097509a509a509a509a509a509a509a509a509a509a50509193959799509193959799565b600460205281600052604060002081815481106109eb57600080fd5b90600052602060002001600091509150505481565b600081815260046020908152604091829020805483518184028101840190945280845260609392830182828015610a5657602002820191906000526020600020905b815481526020019060010190808311610a42575b50505050509050919050565b600081815260046020908152604080832080548251818502810185019093528083528493830182828015610ab557602002820191906000526020600020905b815481526020019060010190808311610aa1575b505050505090508051600003610ace5750600092915050565b6000805b8251811015610b375760036000848381518110610af157610af16113cf565b60209081029190910181015182528101919091526040016000206005015460ff1615610b255781610b2181611228565b9250505b80610b2f81611228565b915050610ad2565b508151610b458260646113e5565b610b4f91906113fc565b949350505050565b600081815260036020908152604080832060018101548085526002909352922060070154600160a01b900460ff16610bd15760405162461bcd60e51b815260206004820152601a60248201527f456c2070726f796563746f206e6f20657374612061637469766f000000000000604482015260640161041a565b600582015460ff1615610c265760405162461bcd60e51b815260206004820152601a60248201527f456c206869746f207961206573746120636f6d706c657461646f000000000000604482015260640161041a565b600582015461010090046001600160a01b03163314610cad5760405162461bcd60e51b815260206004820152602b60248201527f536f6c6f20656c20726573706f6e7361626c6520707565646520636f6d706c6560448201527f74617220656c206869746f000000000000000000000000000000000000000000606482015260840161041a565b60058201805460ff191660011790556040805182815260208101859052338183015290517f963b2b403381d94ee02a61522d57f7432a382950a7ec87edf8a90235eff0c0dc916060908290030190a1505050565b60026020526000908152604090208054600182018054919291610d23906111d8565b80601f0160208091040260200160405190810160405280929190818152602001828054610d4f906111d8565b8015610d9c5780601f10610d7157610100808354040283529160200191610d9c565b820191906000526020600020905b815481529060010190602001808311610d7f57829003601f168201915b505050505090806002018054610db1906111d8565b80601f0160208091040260200160405190810160405280929190818152602001828054610ddd906111d8565b8015610e2a5780601f10610dff57610100808354040283529160200191610e2a565b820191906000526020600020905b815481529060010190602001808311610e0d57829003601f168201915b50505060038401546004850154600586015460068701546007909701549596929591945092506001600160a01b0381169060ff600160a01b8204811691600160a81b9004168a565b600060208284031215610e8457600080fd5b5035919050565b6000815180845260005b81811015610eb157602081850181015186830182015201610e95565b506000602082860101526020601f19601f83011685010191505092915050565b87815286602082015260e060408201526000610ef060e0830188610e8b565b606083019690965250608081019390935290151560a08301526001600160a01b031660c0909101529392505050565b634e487b7160e01b600052604160045260246000fd5b600082601f830112610f4657600080fd5b813567ffffffffffffffff80821115610f6157610f61610f1f565b604051601f8301601f19908116603f01168101908282118183101715610f8957610f89610f1f565b81604052838152866020858801011115610fa257600080fd5b836020870160208301376000602085830101528094505050505092915050565b600080600080600060a08688031215610fda57600080fd5b853567ffffffffffffffff80821115610ff257600080fd5b610ffe89838a01610f35565b9650602088013591508082111561101457600080fd5b5061102188828901610f35565b959895975050505060408401359360608101359360809091013592509050565b600080600080600060a0868803121561105957600080fd5b85359450602086013567ffffffffffffffff81111561107757600080fd5b61108388828901610f35565b945050604086013592506060860135915060808601356001600160a01b03811681146110ae57600080fd5b809150509295509295909350565b634e487b7160e01b600052602160045260246000fd5b600681106110f057634e487b7160e01b600052602160045260246000fd5b9052565b60006101408c835280602084015261110e8184018d610e8b565b90508281036040840152611122818c610e8b565b9150508860608301528760808301528660a08301528560c08301526001600160a01b03851660e08301528315156101008301526111636101208301846110d2565b9b9a5050505050505050505050565b6000806040838503121561118557600080fd5b50508035926020909101359150565b6020808252825182820181905260009190848201906040850190845b818110156111cc578351835292840192918401916001016111b0565b50909695505050505050565b600181811c908216806111ec57607f821691505b60208210810361120c57634e487b7160e01b600052602260045260246000fd5b50919050565b634e487b7160e01b600052601160045260246000fd5b60006001820161123a5761123a611212565b5060010190565b601f82111561128b57600081815260208120601f850160051c810160208610156112685750805b601f850160051c820191505b8181101561128757828155600101611274565b5050505b505050565b815167ffffffffffffffff8111156112aa576112aa610f1f565b6112be816112b884546111d8565b84611241565b602080601f8311600181146112f357600084156112db5750858301515b600019600386901b1c1916600185901b178555611287565b600085815260208120601f198616915b8281101561132257888601518255948401946001909101908401611303565b50858210156113405787850151600019600388901b60f8161c191681555b5050505050600190811b01905550565b8381526060602082015260006113696060830185610e8b565b90506001600160a01b0383166040830152949350505050565b8082018082111561139557611395611212565b92915050565b838152606081016113af60208301856110d2565b610b4f60408301846110d2565b8181038181111561139557611395611212565b634e487b7160e01b600052603260045260246000fd5b808202811582820484141761139557611395611212565b60008261141957634e487b7160e01b600052601260045260246000fd5b50049056fea26469706673582212200758b3c23cea6f02ec5c29f4e2b69f27fa3cc2796bfb15fe8e771fd6a5fa1ccc64736f6c63430008140033",
  "linkReferences": {},
  "deployedLinkReferences": {}
}